:020000040800F2
:10000000B8040020010100082501000827010008AC
:10001000290100082B0100082D0100080000000044
:100020000000000000000000000000002F01000898
:10003000310100080000000033010008350100080C
:1000400037010008370100083701000837010008B0
:1000500037010008370100083701000837010008A0
:100060003701000837010008370100083701000890
:100070003701000837010008370100083701000880
:100080003701000837010008370100083701000870
:100090003701000837010008370100083701000860
:1000A00037010008A310000837010008090F0008F5
:1000B000BD100008E1120008911400083701000883
:1000C0003701000837010008370100083701000830
:1000D0003701000837010008370100083701000820
:1000E000370100083701000837010008DFF80CD09D
:1000F00001F0B4FE00480047A11E0008B80400202B
:100100000D488047DFF83400016841F4E0210160C8
:10011000BFF34F8FDFF82800DFF8281001600A488E
:1001200000477047FEE7FEE7FEE7FEE7FEE7FEE773
:10013000FEE7FEE7FEE7FEE72301000824ED00E00E
:100140000CED00E00003FA05ED000008014601296E
:1001500001D1002231E0B1F5807F01DD012200E014
:100160000022D21D802901DD012300E000231A4472
:10017000402901DD012300E000231A44102901DD9C
:10018000012300E000231A44082901DD012300E0D7
:1001900000231A44042901DD012300E000231A444E
:1001A000022901DD012300E000231A44012901DDB9
:1001B000012300E000231A4412011046702800D1E8
:1001C0000020704710B583202C490860002048604B
:1001D00088602B4848600120FFF7B8FF274949682D
:1001E0000843264948600020264908600846006800
:1001F00040F0020008602148006840F480301F4948
:10020000086000BF1D48006810F4003FFAD01B488A
:10021000006840F080701949086000BF1748006806
:1002200010F0007FFAD01548406820F00300134911
:1002300048600846406840F0020048600846406850
:1002400040F4800048600F48006840F010000D49FD
:10025000086010BD01460C48814202D00B48814223
:1002600001D10B4870470A48FCE709487047094824
:100270007047074870470848704700000010024068
:1002800000841D0000200240002C01400034014089
:1002900000A24A0400512502001BB7002DE9F041DD
:1002A0000446584FBC4207D1574FBF6947F0040777
:1002B000DFF854C1CCF81870544FBC4207D1524FEC
:1002C000BF6947F00807DFF840C1CCF81870504FFD
:1002D000BC4207D14C4FBF6947F01007DFF828C177
:1002E000CCF818704B4FBC4207D1474FBF6947F05D
:1002F0002007DFF814C1CCF81870474FBC4207D173
:10030000414FBF6947F04007DFF8FCC0CCF81870D8
:1003100000200F2900DD0120692A01D0492A02D1DD
:10032000032B00D10120032B00DD0120692A06D018
:10033000492A04D06F2A02D04F2A00D00120692A0E
:1003400001D0492A00D100266F2A01D04F2A00D1BE
:100350000126082928DA27684FEA810C0CF1020CE3
:100360004FF0030808FA0CF827EA08072760276807
:100370004FEA810C0CF1020C03FA0CFC47EA0C0763
:10038000276027684FEA81084FF0030C0CFA08FC3D
:1003900027EA0C07276027684FEA810C06FA0CFC55
:1003A00047EA0C0727602AE0A1F10807FDB2676859
:1003B0004FEA850C0CF1020C4FF0030808FA0CF818
:1003C00027EA0807676067684FEA850C0CF1020CA2
:1003D00003FA0CFC47EA0C07676067684FEA850878
:1003E0004FF0030C0CFA08FC27EA0C0767606768FB
:1003F0004FEA850C06FA0CFC47EA0C076760BDE87B
:10040000F08100000008014000100240000C014093
:100410000010014000140140001801402DE9F34F85
:100420008FB00646F948864205D1F948806940F404
:100430000060F7498861B6F1804F05D1F448C06982
:1004400040F00100F249C861F248864205D1F04807
:10045000C06940F00200EE49C861EF48864205D10C
:10046000EB48C06940F00400E949C8613046FFF735
:10047000F1FE0E900E9801F05CFB0A90109901F0CD
:1004800057F90B9001F0C4FB0022E44BCDE90C01BD
:1004900001F0D7FA044601F0FFFB8246504601F016
:1004A000B7FB0022DE4BCDE90C0101F0CAFA04468D
:1004B00001F0F2FB8146484601F077FB401C87B211
:1004C000384601F036FB04462146504601F062F9F9
:1004D0008046781E3085404601F067FB401EB0859F
:1004E000404601F062FB401EB0840E9801F037FBDD
:1004F000CDE90A01308D01F01CFB039001F088FB6F
:1005000004460022C74B01F083F9CDE90601B08D06
:1005100001F00FFB019001F07BFB04460022C14B70
:1005200001F076F90022BD4BCDE9020101F017FA86
:10053000CDE90401DDE9062301F011FACDE9080156
:10054000DDE90A2301F07DFACDE90C0101F0A4FBFD
:10055000834611203080584611B0BDE8F08F2DE958
:10056000F04704460D46A948844205D1A848806951
:1005700040F40060A6498861B4F1804F05D1A448D9
:10058000C06940F00100A249C861A248844205D177
:100590009F48C06940F002009D49C8619E4884425E
:1005A00005D19B48C06940F004009949C861FFF734
:1005B0005CFE81462046FFF74DFEB9FBF0F8B5FB27
:1005C000F8F52E0C761CB5FBF6F7701E2085781E0C
:1005D000A085A08411202080BDE8F08710B58B4B4A
:1005E000984205D18A4B9B6943F40063884CA36110
:1005F000B0F1804F05D1864BDB6943F00103844C99
:10060000E361844B984205D1814BDB6943F00203DF
:100610007F4CE361804B984205D17D4BDB6943F011
:1006200004037B4CE361838943F0010383810F2939
:1006300000DD0F21754B98420DD17B4B1A600B07E3
:100640001C0E7A4B1C707A4B1B6843F000734FF002
:10065000E024C4F80031B0F1804F0DD1754B1A6021
:100660000B071C0E744B1C70714B1B6843F08053BE
:100670004FF0E024C4F80031664B98420DD16F4B27
:100680001A600B071C0E6E4B1C70694B1B6843F005
:1006900000534FF0E024C4F800315F4B98420DD175
:1006A000684B1A600B071C0E674B1C70604B1B6875
:1006B00043F080434FF0E024C4F8003110BD70B522
:1006C000524CA04205D1524CA46944F40064504DF0
:1006D000AC61B0F1804F05D14D4CE46944F00104A8
:1006E0004B4DEC614B4CA04205D1494CE46944F0C0
:1006F0000204474DEC61484CA04205D1444CE469EA
:1007000044F00404424DEC610F2A00DD0F223F4CFF
:10071000A0420BD11407250E4C4C2570444C246884
:1007200044F000644FF0E025C5F80041B0F1804F7F
:100730000BD11407250E404C25703D4C246844F025
:1007400080544FF0E025C5F80041324CA0420BD157
:100750001407250E3A4C2570354C246844F000549B
:100760004FF0E025C5F800412B4CA0420BD11407F7
:10077000250E354C25702E4C246844F080444FF0F3
:10078000E025C5F80041214CA04221D1012906D025
:1007900002290AD003290ED0042918D111E02C4CCB
:1007A000236001242B4D2C7011E02B4C236001247D
:1007B0002A4D2C700BE02A4C23600124294D2C700B
:1007C00005E0294C23600124284D2C7000BFACE0CB
:1007D000B0F1804F5FD1012906D002290AD0032948
:1007E0000ED0042956D14FE0214C23600124214D25
:1007F0002C704FE0204C23600124204D2C7049E0E8
:100800001F4C236001241F4D2C7043E0002C01403D
:1008100000100240000400400008004080842E4187
:100820000000F0400000F03F0000002019E400E06C
:1008300000E100E0040000201CE400E008000020CB
:100840001DE400E00C0000201EE400E01BE400E0DA
:1008500020000020100000202400002011000020B3
:1008600028000020120000202C000020130000208F
:10087000300000201400002034000020150000206B
:100880003800002016000020FE4C23600124FE4D9D
:100890002C7000BF49E0FD4CA04221D1012906D0B7
:1008A00002290AD003290ED0042918D111E0F84CEE
:1008B00023600124F74D2C7011E0F74C23600124D4
:1008C000F64D2C700BE0F64C23600124F54D2C7096
:1008D00005E0F54C23600124F44D2C7000BF24E0AA
:1008E000F34CA04221D1012906D002290AD00329C4
:1008F0000ED0042918D111E0EE4C23600124EE4DF6
:100900002C7011E0ED4C23600124ED4D2C700BE0B8
:10091000EC4C23600124EC4D2C7005E0EB4C236083
:100920000124EB4D2C7000BF00BF012901D002292A
:1009300011D1058B4C1E042606EBC4060724B440D7
:10094000A5430583058B4C1E042606EBC406012433
:10095000B44025430583032901D0042911D1858B97
:10096000CC1E042606EBC4060724B440A5438583A9
:10097000858BCC1E042606EBC4060124B440254317
:100980008583848901258D402C43848170BD70B599
:1009900004460D46164631462046FFF7E0FD012D80
:1009A00001D0022D18D1208B691ECA00032191406D
:1009B00088432083218B681E042202EBC00207209B
:1009C000904081432183218B681E042202EBC002E8
:1009D0000620904001432183032D01D0042D18D11E
:1009E000A08BE91ECA00032191408843A083A18BFC
:1009F000E81E042202EBC002072090408143A1833D
:100A0000A18BE81E042202EBC002062090400143A5
:100A1000A183218C681E012202EB800201209040FC
:100A200081432184208C691E8A0001219140084362
:100A30002084A848844205D1B4F8440040F4004022
:100A4000A4F84400A08D401C80B270BD2DE9F05F79
:100A5000804689469246504601F0DAF8064632460C
:100A60000B4600209C4900F0ECFF044601F014F90D
:100A7000834659464046FFF7D1FCB9F1010F02D039
:100A8000B9F1020F21D1B8F81800A9F10101CA008B
:100A9000032191408843A8F81800B8F81810A9F16C
:100AA0000100042202EBC002072090408143A8F815
:100AB0001810B8F81810A9F10100042202EBC002C6
:100AC000062090400143A8F81810B9F1030F02D096
:100AD000B9F1040F21D1B8F81C00A9F10301CA0033
:100AE000032191408843A8F81C00B8F81C10A9F114
:100AF0000300042202EBC002072090408143A8F8C3
:100B00001C10B8F81C10A9F10300042202EBC0026B
:100B1000062090400143A8F81C10B8F82010A9F155
:100B20000100012202EB8002012090408143A8F8DD
:100B30002010B8F82000A9F101018A00012191409C
:100B40000843A8F820006348804505D1B8F8440060
:100B500040F40040A8F84400B8F82C00401C80B2D3
:100B6000BDE8F09F5D49896941F400615B4A91618C
:100B7000584920310988421E9200921C012393405B
:100B80001943544A2032118011460988421E9200AE
:100B9000D21C0123934099434E4A20321180704762
:100BA00010B502464B4B9A4205D14C4B9B6943F41E
:100BB00000634A4CA361B2F1804F05D1474BDB691A
:100BC00043F00103454CE361304B9A4205D1434B5E
:100BD000DB6943F00203414CE361354B9A4205D196
:100BE0003E4BDB6943F004033C4CE3610020138976
:100BF00023F007031381012903D0022901D003291F
:100C000003D113890B43138100E00120138B23F0E0
:100C100003031383138B43F001031383138B23F418
:100C200040731383138B43F480731383138C23F06B
:100C300002031384138C23F020031384138823F0FE
:100C400001031380138843F0010313804FF6FF73F1
:100C5000938510BD2DE9F04F8FB004460D46174621
:100C60009846189E1B48844205D11C48806940F470
:100C700000601A498861B4F1804F35D11748C069C6
:100C80002EE000003C00002017000020000400407F
:100C9000400000201800002044000020190000201F
:100CA000480000201A0000204C0000201B000020FB
:100CB00000080040500000201C00002054000020CC
:100CC0001D000020580000201E0000205C000020B5
:100CD0001F000020002C014000408F400010024007
:100CE00040F00100FE49C861FE48844205D1FC483D
:100CF000C06940F00200FA49C861FB48844205D14E
:100D0000F748C06940F00400F549C8612046FFF784
:100D1000A1FA0020A085404600F00BFF059000F0EE
:100D200077FFCDE90801384600F072FFEF4AF04B3B
:100D3000CDE9040100F013FECDE90601DDE9082349
:100D400000F07FFECDE90A0100F0A6FF81460E9873
:100D500000F0EFFE49460B9000F0EAFC8246504658
:100D600000F056FF0022E34BCDE90A0100F064FFDA
:100D700002D201200C908CE0504600F049FF002286
:100D8000DD4BCDE90A0100F06FFF02D201200C908B
:100D90007FE0504600F009FF401E2085012D01D064
:100DA000022D0DD1208B691ECA000321914088437A
:100DB0002083208B691ECA000121914008432083B3
:100DC000032D01D0042D0DD1A08BE91ECA000321F3
:100DD00091408843A083A08BE91ECA000121914065
:100DE0000843A083218C681E012202EB80020120AF
:100DF000904081432184208C691E8A00012191400A
:100E0000084320840F2E00DD0F26BC4884420BD1FE
:100E10003007010EBA480170BA48006840F000601F
:100E20004FF0E021C1F80001B4F1804F0BD1300741
:100E3000010EB5480170B348006840F080504FF093
:100E4000E021C1F80001A74884420BD13007010E10
:100E5000AE480170AB48006840F000504FF0E02110
:100E6000C1F80001A04884420BD13007010EA84808
:100E70000170A448006840F080404FF0E021C1F8C4
:100E80000001A0894FF0010101FA05F140EA0100DB
:100E9000A0814FF001002080218D01F1010000F0C0
:100EA0003FFE059000F0B4FECDE908010E9800F079
:100EB00040FE019000F0ACFECDE90401384600F0A0
:100EC000A7FE8A4A8A4BCDE9000100F048FDCDE932
:100ED0000201DDE9042300F042FDCDE90601DDE970
:100EE000082300F0AEFDCDE90A0100F0D5FE0D901B
:100EF0000D9800F041FE1FFA80FB4FF6FF70A085B1
:100F000058460FB0BDE8F08F10B57C48103000880F
:100F100000F0020002282BD178481030008820F021
:100F200002007649103108807A480078012802D101
:100F300079480068804771482030008810F0020F1F
:100F400005D16E48343000887449088007E06B484A
:100F50003430008871490988401A7149088067480F
:100F60002030008880F0020064492031088097E03A
:100F700062481030008800F0040004282BD15F483C
:100F80001030008820F004005C491031088065486A
:100F90000078012802D16448006880475748203013
:100FA000008810F0200F05D15448383000885B4984
:100FB000488007E051483830008858494988401A2D
:100FC000574948804D482030008880F020004B4928
:100FD0002031088064E049481030008800F00800A3
:100FE00008282BD145481030008820F008004349DC
:100FF000103108804D480078032802D14C48006821
:1010000080473E482030008810F4007F05D13B48DF
:101010003C3000884149888007E038483C300088EF
:101020003E498988401A3E498880344820300088EB
:1010300080F4007031492031088031E02F481030B1
:10104000008800F0100010282AD12C4810300088A9
:1010500020F0100029491031088036480078012816
:1010600002D135480068804724482030008810F4B9
:10107000005F05D12148403000882849C88007E03A
:101080001E48403000882549C988401A2449C88034
:101090001A482030008880F4005018492031088018
:1010A00010BD10B515481030008820F0010013491C
:1010B0001031088021480068804710BD10B54FF0FE
:1010C0008040008A00F00100012842D18007808919
:1010D00000F0010001283CD18007008A30E00000C8
:1010E0000010024000040040000800408DEDB5A053
:1010F000F7C6B03E0000F03F0000F040002C014079
:101100001BE400E000E100E01CE400E01DE400E07E
:101110001EE400E0100000202000002080000020DD
:101120006000002011000020240000201200002098
:1011300028000020130000202C00002000000020C8
:1011400020F001004FF080410882FE48006880478F
:10115000C5E04FF08040008A00F0020002282AD14A
:101160004007008A20F002004FF080410882F648D4
:101170000078012802D1F548006880474FF0804090
:10118000008C10F0020F05D14FF08040808EF049A6
:10119000088007E04FF08040808EED490988401AB2
:1011A000EC4908804FF08040008C80F002004FF046
:1011B0008041088493E04FF08040008A00F00400F2
:1011C00004282AD10007008A20F004004FF0804153
:1011D0000882DD480078012802D1DF480068804796
:1011E0004FF08040008C10F0200F05D14FF0804070
:1011F000008FD749488007E04FF08040008FD449E6
:101200004988401AD34948804FF08040008C80F0D4
:1012100020004FF08041088461E04FF08040008A58
:1012200000F0080008282AD1C006008A20F0080033
:101230004FF080410882C9480078012802D1C8488F
:10124000006880474FF08040008C10F4007F05D18B
:101250004FF08040808FBE49888007E04FF080408B
:10126000808FBB498988401ABA4988804FF08040F6
:10127000008C80F400704FF0804108842FE04FF024
:101280008040008A00F01000102828D18006008AD3
:1012900020F010004FF080410882B2480078012809
:1012A00002D1B148006880474FF08040008C10F4B4
:1012B000005F04D1AD480088A549C88007E0AB486D
:1012C0000088A349C988A0EB0100A249C8804FF05B
:1012D0008040008C80F400504FF08041088410BDA5
:1012E00010B5A348008800F00100012810D1A048E3
:1012F000001F008800F00100012809D19C480088E7
:1013000020F001009A4908809A4800688047BEE0B2
:101310009748008800F00200022829D194480088EC
:1013200020F002009249088093480078012802D1F9
:101330009248006880478E481030008810F0020FF5
:1013400005D18B48243000888D49088007E0884803
:10135000243000888A490988401A8A4908808448CC
:101360001030008880F002008149103108808EE042
:101370007F48008800F00400042829D17C480088B8
:1013800020F004007A4908807F480078012802D1C3
:101390007E480068804776481030008810F0200FA3
:1013A00005D17348283000887549488007E07048A7
:1013B0002830008872494988401A724948806C4830
:1013C0001030008880F020006949103108805EE00C
:1013D0006748008800F00800082829D16448008880
:1013E00020F008006249088069480078012802D18D
:1013F0006848006880475E481030008810F4007F1D
:1014000005D15B482C3000885D49888007E058484A
:101410002C3000885A498988401A5A498880544893
:101420001030008880F400705149103108802EE09F
:101430004F48008800F01000102828D14C48008840
:1014400020F010004A49088053480078012802D152
:1014500052480068804746481030008810F4005F0A
:1014600005D14348303000884549C88007E04048EE
:10147000303000884249C988401A4249C8803C48F7
:101480001030008880F4005039491031088010BDB8
:1014900010B54348008800F00100012810D14048F1
:1014A000001F008800F00100012809D13C48008895
:1014B00020F001003A4908803A4800688047FAE085
:1014C0003748008800F00200022829D134480088FB
:1014D00020F002003249088033480078012802D108
:1014E0003248006880472E481030008810F0020F04
:1014F00005D12B48243000882D49088007E0284872
:10150000243000882A490988401A2A49088024483A
:101510001030008880F00200214910310880CAE0B4
:101520001F48008800F00400042865D11C4800888A
:1015300020F004001A4908801F480078012841D192
:101540001E483DE00400002015000020300000206F
:1015500088000020680000203400002016000020D1
:1015600038000020170000203C0000204000004010
:101570001004004008000020180000204000002057
:10158000900000207000002019000020440000207E
:101590001A000020480000201B0000204C00002002
:1015A000100800400C0000201C000020500000200B
:1015B00098000020780000201D000020540000202A
:1015C000006880474E48008810F0200F05D14C4835
:1015D000183000884B49488007E049481830008897
:1015E00048494988401A484948804548008880F061
:1015F0002000434908805EE041481038008800F030
:101600000800082828D13E481038008820F008003B
:101610003B49103908803D480078012802D13C48F8
:10162000006880473648008810F4007F05D13448B0
:101630001C3000883349888007E031481C3000881E
:1016400030498988401A304988802D48008880F4C4
:1016500000702B4908802EE029481038008800F0DF
:101660001000102827D126481038008820F01000DC
:1016700023491039088027480078012802D12648DC
:10168000006880471E48008810F4005F05D11C48A0
:10169000203000881B49C88007E0194820300088A6
:1016A0001849C988401A1849C8801548008880F42C
:1016B00000501349088010BD10B50246174B9A42DE
:1016C00004D14B1E164C34F8130017E0B2F1804FD2
:1016D00004D14B1E134C34F813000FE0124B9A4206
:1016E00004D14B1E114C34F8130007E0044B203B8F
:1016F0009A4203D14B1E044C34F8130010BD000075
:101700002008004098000020780000201E000020E3
:10171000580000201F0000205C000020002C014029
:1017200060000020680000200004004070000020DD
:1017300080EA010210B502F00043400022D04A00C6
:101740001FD0010E01EB1261C0F35600C2F3560226
:1017500040F4000042F40002A0FB022000047F39A4
:10176000140400D0401C50EA124001D44000491E2D
:10177000C2B20C0604EBD010401C4008802A02D0F4
:1017800003E0002010BD20F00100002900DA002055
:10179000184310BD30B480EA010202F0004530F079
:1017A000004221F0004013D090B1C30DD40DC2F31C
:1017B0001601C0F31600E41A41F4000140F40002DF
:1017C0007D34914201D3641C00E04900002C02DA10
:1017D00030BC002070474FF400000023914201D339
:1017E000891A034340084FEA4101F7D151B19142B0
:1017F00002D14FF0004105E002D24FF0010101E0BB
:101800006FF0010103EBC450284430BC00F091BAE2
:101810002DE9FE4F804681EA0300C00F0C46009080
:1018200021F0004123F00045B8EB0200A94105D2A8
:101830004046214690461C460B46024623F0004097
:10184000104347D0270DC7F30A00C3F30A51029093
:10185000401A019040286BDAC3F3130040F4801B58
:101860000098924620B10023D2EB030A63EB0B0BE6
:1018700001985946C0F14002504600F029FA064648
:101880000D4650465946019A00F041FA10EB080007
:101890006141002487EA115284EAE7731A4340D079
:1018A000009A62B3019A012A4FEA075215DC001B25
:1018B00061EB02014FF0004202EA0752CDE900421B
:1018C000001C41F5801132462B4600F078FA03B037
:1018D000BDE8F08F40462146F9E7001B61EB0201AD
:1018E000001C41F5801300185B412018A2F5001779
:1018F00047EB030140EAD570B6196D4111E06D0860
:101900004FEA360645EAC0754FEA0752001B61EB05
:101910000201001C41F5801149084FEA300000190E
:10192000514132462B4603B0BDE8F04F00F038BAC3
:101930000098012240000023D0EB020263EBE07329
:10194000009821464FEAE074B8EB000061EB040117
:10195000E9E783F000435BE781F0004158E72DE9B8
:10196000FE4F81EA030404F0004421F0004100949A
:101970004FF0000B23F0004350EA01045ED052EA1E
:1019800003045BD0C3F30A54C1F30A552C44A4F2F8
:10199000F3340194A0FB0254C1F3130141F480110C
:1019A000C3F3130343F4801301FB024400FB034E13
:1019B000840A970A44EA815447EA8357A4FB0768DC
:1019C00002958D0A05FB07854FEA932C04FB0C5406
:1019D0002705029D4FEA065847EA1637B5EB08057A
:1019E0006EEB070C870E920E47EA811742EA8312CC
:1019F000A7FB0201B6EB0B0164EB00042B0D43EADD
:101A00000C335E1844EB1C50DA465146E7FB0201EA
:101A1000C5F313044FEA0B3343EA14534FEA04327D
:101A2000019C43EA0603A4F10C040294009CCDE956
:101A300000B400F0C4F903B0BDE8F08F0020014607
:101A4000F9E72DE9F04D81EA030404F0004B21F0A1
:101A5000004514464FF0000A23F0004150EA050209
:101A600020D054EA01021DD0C5F30A570246C5F33F
:101A70001303C1F31300C1F30A5640F4801543F475
:101A80008013A7EB0608101BD64608F2FD3873EB4F
:101A9000050002D308F1010801E092185B41B8F19A
:101AA000000F03DA00200146BDE8F08D00204FF45E
:101AB0008011064684460EE0171B73EB050705D31D
:101AC000121B63EB050306434CEA010C49084FEA7D
:101AD000300092185B4150EA0107EDD152EA030051
:101AE00012D082EA040083EA0501084305D0101BE6
:101AF000AB4106D20122002306E000224FF0004352
:101B000002E06FF0010253101AEB06004CEB085193
:101B100010EB0A0041EB0B01BDE8F04D00F040B9BD
:101B2000C10F80EAE0700844CA079623002100F044
:101B300009B996230022114600F004B90EB5C10F71
:101B400080EAE0700844CA07002140F233438DE880
:101B50000E000A460B4600F032F903B000BD0EB588
:101B600040F2334102910021CDE900110A460B46B3
:101B700000F025F903B000BD00F0004220F0004065
:101B8000C10DC0F3160040F400007F2901DA0020E7
:101B90007047962903DCC1F19601C84001E09639EF
:101BA0008840002AF4D04042704720F00040C10D28
:101BB000C0F3160040F400007F2901DA00207047CE
:101BC000962903DCC1F19601C840704796398840D8
:101BD000704770B5C1F30A5201F000450024C1F30B
:101BE000130140F2FF3341F480119A4201DA0020E0
:101BF00070BD40F233439A42A2F2334203DC5242B8
:101C000000F075F800E090402C43F1D0404270BDE8
:101C100000F0004230F000400AD0C10D01F56071C3
:101C2000C0F3160042EA0151C20840071143704751
:101C3000002001467047000030B5041E71F1000419
:101C400004DB4FF00044404264EB0101141E73F1C9
:101C5000000405DB1C464FF00043524263EB0403D3
:101C60008B4208BF824230BD30B5041E71F10004C2
:101C700004DB4FF00044404264EB0101141E73F199
:101C8000000405DB1C464FF00043524263EB0403A3
:101C9000994208BF904230BD01F0004330B421F0BA
:101CA000004150EA010206D00A0DA2F56072C1F3AC
:101CB0001301002A02DC30BC00207047440F44EAC4
:101CC000C104C100E01830BC00EBC25000F031B8D4
:101CD000202A04DB203A00FA02F1002070479140EC
:101CE000C2F1200320FA03F3194390407047202AE1
:101CF00004DB203A21FA02F00021704721FA02F3B6
:101D0000D040C2F120029140084319467047202A72
:101D100006DBCB17203A41FA02F043EAE07306E013
:101D200041FA02F3D040C2F1200291400843194623
:101D300070470029A8BF7047401C490008BF20F029
:101D40000100704710B4B0FA80FC00FA0CF050EAC1
:101D5000010404BF10BC704749B1CCF1200421FA42
:101D600004F411FA0CF118BF012121430843A3EB3D
:101D70000C01CB1D4FEA00614FEA102042BF00204A
:101D800010BC704700EBC35010440029A4BF10BC26
:101D90007047401C490008BF20F0010010BC70478C
:101DA00010B5141E73F1000408DA401C41F1000163
:101DB00092185B411A4301D120F0010010BD2DE9BA
:101DC000F04D92469B4611B1B1FA81F202E0B0FAB1
:101DD00080F220329046FFF77BFF04460F4640EA30
:101DE0000A0041EA0B0153465A46084313D01146F4
:101DF00053EA010019D0C8F140025046FFF777FFBF
:101E000005460E46504659464246FFF761FF0843D5
:101E100005D0012004E020463946BDE8F08D0020C1
:101E2000054346EAE0762C4337430A986305E40A03
:101E3000A0EB08000022FD0A44EA47540A3002D50C
:101E400000200146E9E7010510196941DDE908456F
:101E500000196941BDE8F04DA2E70000064C074DAE
:101E600006E0E06840F0010394E80700984710346A
:101E7000AC42F6D3FEF73EF94C1F00086C1F000879
:101E800002E008C8121F08C1002AFAD17047704743
:101E9000002001E001C1121F002AFBD170470000A1
:101EA00000201B4908601B48006848601A48886089
:101EB0001A480068FFF742FE0646194A194BFFF719
:101EC0004EFD04460022184BFFF749FD8046FFF700
:101ED00080FE0F490861FEF775F902236F22002189
:101EE0001248FEF7DBF90A48032102691048FEF7A1
:101EF0004EFD0749C8600F4A02210D48FEF76EFBF0
:101F00000B48008840F001000949088000BFFEE747
:101F1000A00000206C1F0008741F0008701F00083C
:101F2000FCA9F1D24D62503F882A9141000C01403A
:101F300000040040391F00080248016882685358B5
:101F400001490B60A00000203C04004070570008CD
:101F500000000020A0000000801E000810580008AB
:101F6000A000002018040000901E0008FE1B0000C6
:101F70005B000000FBFFFEFFFEFFFEFF050002000E
:101F800005000000F9FFFBFFFBFFFEFF0000000063
:101F90000500020000000000FEFF02000500FEFF39
:101FA000F9FF0000020005000500FEFF0200050029
:101FB000FBFF000007000A000F00050005000500F8
:101FC0000500070005000000FBFF020007000000FD
:101FD0000000F6FFF4FF07000500180022001F00B4
:101FE0002700DCFFEAFF30003D00460038002400F7
:101FF000F9FFD0FFC3FFDEFF11000A00F4FF0C0061
:10200000FEFFF6FF0A0033005700FBFFEAFFFEFF6A
:10201000E3FFC6FFC6FFB3FFB5FFC8FF85FFC3FFE1
:10202000E3FFE5FF0C00FEFFFBFF290096006D00BB
:1020300011003300220002002200FEFF2C00FEFFF0
:10204000E5FFD2FFBDFDC9FC76FF5A018602D5042B
:10205000DA04080588046C024002E9013300BCFE82
:1020600059FF3CFF39FED30088010101A80677081B
:102070000D09980B790C5811EB0FC60F61139512CF
:10208000B6141414B8147E14E110C21026124117AD
:102090005818B2167C18F2148F14D51B3F18B513BC
:1020A000AE16AF18C819CE180611BD04241BAC46D5
:1020B0009044B60DDDEE1B24B267C668F34BD542E3
:1020C0009F405144063C64184F07273EC96C5B395A
:1020D000A50C7FFA7ADEA4D891E03A08401D12EFF1
:1020E000C6C521D79313EE30841D720C470DAC1872
:1020F000B016F806B3EC0AF8F33872365314611CC4
:102100007C23FA2B4D1E351F352BF70B8F13D93837
:10211000A343473F5D1C1915B13F59392C0CE4FD11
:102120009D0B7D2A9E4E2B518320EF0FB9285232F2
:10213000413DB734DF27AC0F300B353A6A3D84316F
:102140006E24651A0643724E4817E4F56411613A2D
:10215000B34EBD3F2737F5476151D3427D1EEE1C7C
:1021600075444040490CBF0B923C094CEF32460489
:10217000BDF16516371AB6EE15ECD31425300833C9
:10218000151D64182A439C637956152A2232B45EC1
:102190003758C22B861C5D4C3E636B4ADE0A60E7F3
:1021A0005403FAFABECC5E9A23A943C556C8ABC500
:1021B00001B8B6E200FCF9ECE2DE82E448F83EE861
:1021C000B2DF42FA9910671DDA238809B3DD56E7BA
:1021D0005BFE06CB9DB6B5D138DDC1D51ACC4ADF42
:1021E0006CE3A8E703DA4DD1F2EDA7F152E1EBD2AF
:1021F00045CFE4D666D219C428B4A69D19B431B827
:102200008C8FBE95D4A939AD4DB168B22FB04FC8EF
:102210004BCD1FB1AAB7D6C8FDC810C85CD592EA8D
:10222000C6F431DA99C325DB16E9F6DF5FCB1FD59B
:1022300004DC79CD31D60BC8D6C0DEAE9DB5CEBE9E
:10224000C9A70CB208B0C2C3E9C30ACE51EAEAEB8F
:102250006FF3D6E6FEE0ABE3C3F760EC67D7C4EDFF
:10226000FC0C751086F6B1F941F81608AC1F471042
:10227000EF0F6C0A741EA93A462FEB2BB5327F4341
:10228000DD24120963134A1EF62DD40EF40FBC2D63
:10229000E2246F1B671E7F15D61D9C3855183C35F0
:1022A000A950732D11595E42831B102D8B34E23BD4
:1022B0001F2A4237592A124BB25FDE16C12ECD2992
:1022C000590E3931932A2023C1395042811D890E7C
:1022D000CC2C88438143762981157E23785FFF7F4C
:1022E0000F615143CF585951CA3CD22E7A288C31B4
:1022F000854DBA61312CA9F32AFA2BF4DFCAE9E93A
:102300006B332EF535C298F4EBF968045C275A2339
:10231000CBFB3EF6E503BF0033E524D8BD205B349C
:102320006C15C00DDC131526A10E1C11A01392F222
:10233000A7F548163E3806435A00C1D55C335644CB
:1023400036F6A6D07AF9593678155E1E592AA907AD
:10235000D7F405F4462B8628CBF05CD14DF7A13994
:102360007C15C6F4F71CD2321A0F2107342D8415C0
:1023700038E5FAE9492C624FEA261A136A2EB25060
:10238000402930F0C31D5042991089EFBA0BAD2C93
:1023900068222CF9A9E85406AE0496EC31F902073C
:1023A00016003101D2220E0B6CF67C4AFF7F156CB1
:1023B0001B1BB71A546F0D766031921543458A691D
:1023C0000F423EDB48B9B006681022E574BA108AA5
:1023D00001B4BDE58BC0D6A8C6BE3DEA0D217A0288
:1023E0007ABBE8AA55E6B832B4F9BECFF1FA980F35
:1023F0002408DAD1BFC5ACD24CC4ECE72112B7F641
:102400009AFBF017D707A3F6B3C69BD65004540B1C
:10241000F1165A010BFBD5F408CFAD99008000806E
:102420008BA556A900800080ABA60ED52C984D96A2
:1024300006C768ECF0E99F8300804BABBAFB9614AB
:1024400082EC3ECC6E11BC2DDFF5DEE71BE2DBEE4D
:10245000A4FF33F87AE32FEBEFE3E3CD60E389DB0E
:10246000A0F1D1E235A3929930C27F06131B96E109
:102470003B95D4F26C6030601F36DDD7F0BB28FB93
:102480003653A121F7F8D2167E1C91416349E12F02
:1024900067020458CB60B02D7F72C674FF7F9C5BCF
:1024A0003D53FF7F426AFF7FE461CF196E3C254EAA
:1024B000066F4B68F6318D2FD415A310E31A3D3B00
:1024C000EC72BF46073956542269FF7FFF7F6A6866
:1024D0000356A47BFF7FFF7FE55F2D53FF7F0362E1
:1024E0004B4AD73D2C2F6322A91674D12ABCFBE797
:1024F000F9D16AD9BCE389DBBBBBA8DA7D311132E3
:102500002B1A4233852335FF484CA32890E31B0147
:102510007D0E1B1B9702DFF8A4B529CE5824A4DC3E
:10252000EDAE55A02FC348DC67D46AFB20CA5FBB61
:102530009CF6BA0BB7FEA8C886BFE29C0080249E1A
:1025400097A88EDCC9D27F99EB887E9FD7B57D870F
:102550003C9B7F8A0080BCA10080169FD1DF6FA2C8
:10256000F0A8990840E7199D9F8EA99760EFEDC9E3
:10257000148505CE740029D1BCAAB3CD34B5FD9A1B
:1025800000800080249A2CA0059B4BA309A263A382
:10259000E9F9B44B30F30080808402F036F5E7BCF3
:1025A00024A2A1CBB02EE1469D32CF25D83B8C4151
:1025B000A83C033B95DF1DB64AD4EE1DE96A92564E
:1025C000CA7AFF7F886D4452F3150F2CD5378606E3
:1025D000670AEA3D3264032B65FF6842FF7FFF7F95
:1025E0002145AE39FF7FC57D56EEE1C18B34D36EF8
:1025F000684A9516BB152F6EFF7FBA2E7EFCEC2D18
:10260000F325783CB0DCB481E1ED8E31F42D240B60
:10261000EB10794AFF7F3770E0BD008018C2C80216
:10262000E220B909FAB3BED70B29694B3E389DE8C1
:10263000021EF43DA3E6E3C588E622F540E730DD5F
:1026400089D74710B146695BB31ED2EBC30EA00C0D
:1026500059F8FCD5F7E5CEE218ED0BFABCC5EDD183
:10266000FADA61F4011532FBD7E05B1AB930520394
:1026700011FCB3AB00806BC7001FD4306B200DDFA3
:102680007C9C4DBD57B6C5C48AE8611FB94779EC3B
:102690003EC15FF522FD87A2EE8D03DEE62F7E2E82
:1026A0009FD0F59F89D7C62619EEEEE21CFA7CCAA8
:1026B00068CA10FE773B6DF17BD452D82ADEAC3766
:1026C0005527C107CFD8A5DE09F730D55A05B52261
:1026D000D513ADE297BBB6D2E9EE850C8B1C12E7A1
:1026E00058D3CEF1C3F63C03B3C5CACB560620E996
:1026F00078021F2DCE32400A6CFAB64EFF7F974308
:10270000FFCFE5B826BDBAF7F311AC0C9031F42D2C
:10271000C22327DA4FB9D4BDE3B9E1F8EFDCB3CE79
:102720001D0CEE4F5634FCBE64D3EEDB15EF051CDA
:1027300068C1B4A82CCAD6EB16D6B38426A1009FD4
:10274000A5C729173BB0AB87F3C0DBD4D9C90B9D14
:10275000E1C58CF46E028E217A1146F030D853DA3E
:10276000F3C062C4A7EDBBD33CDDBEEEFCE50A14AA
:10277000A13C4E0964C061BA65C840E60BEF4298BF
:1027800000807FD092F68D05AB1E6C02FEDCCCDBA8
:1027900063AE98AE71B1478202DDDE0F20FDE9F530
:1027A000AED599F5641C430E4CE280F020F572E240
:1027B000FBEFBAD1D7D1B8D290EB211A7617514B93
:1027C000264D851BAC0CC40CE0212AE25DA8BDF1AE
:1027D000162FE957FF7FFF7F4C7E903C89FA180443
:1027E000D4F28DEEBE05B20DF660FF7FFF7FFF7F56
:1027F0007E61896F395FB01E18657A7AC150B63F25
:1028000037F48DF9CA5FFF7FFF7F9873E669413522
:1028100082FBD6FDC54B624739EF461EC87FFF7F5E
:10282000FF7F503B314EB6522F4C190575EAD83414
:10283000A14045295315C42EC54B9E6A096FE62F4A
:102840007927B82ACA11812B6A6BD5700DFD75D214
:102850000E3D203FF7FD7D1A5E1345EFB430A027F3
:10286000DD98B09E0EE0CE81BF809F06CB26640926
:10287000291E463E0D01D9E45357FF7FF51421D799
:102880000F2B884693E709926A96BAE0F62197FEE5
:10289000E5D8A638FF7FFF7F173CB4D3BBAF1B0141
:1028A0003C12F6DC43C451C882F319F26CDC41DD02
:1028B000D61C994BD949074119D626A12DDB2DF7F6
:1028C00066E10D0171351F45C33945CB04C5A51817
:1028D000431EAF05D1DF58D77EEC6C1235233D0483
:1028E000F4AEC1A56AF06516FF180BD898D4FE3275
:1028F000C4613A3E75113861FF7F0C7064FAF7A32A
:10290000A4B57A151943A70B83F849148115CF3460
:10291000E21876FF9831595072243AC25BA2B7F69A
:10292000C329FB1A4331323C0A3E5C2E26EC7BE184
:1029300026F7E7D795EE151A8D1543DCF9F0D24C42
:10294000B75B547B1B3B2D41D778365B5B22539D95
:102950006BEE3E347F09EE1066082255FF7F8778C4
:1029600008097591ED9E6FA7C09467B5DDA400803E
:10297000DAD21025EF51663FA027807FFF7FFF7FCF
:10298000FF7FFC32851733140A015A2CFF7F8A61BE
:1029900063FF1BC696AA61E13114A30532FB7DD803
:1029A00092E231152D19F606B0D115C93DE5880C16
:1029B000252BD027843DDC515650CB13CFC754C4B0
:1029C0001B24FF7FFF7FC84848FFDBE206EEA1CF54
:1029D000F5A4B9CF711E8C31ED07C7880080DC9E4D
:1029E00077E9FDF72AD6422FFF7FFF7FE96DDD28CB
:1029F0006DF439F2D3BF8AAAF6AD34C0A31C2942C4
:102A0000741EDA10261AF829790393E082F731E26E
:102A100015CCE5BD72B3AED8C60E424A592ED8E6E3
:102A20004F06B73D644EAB356EEFAFE2FBF72B0FB1
:102A3000883BA144383E4E20FFD755B745DF57E1CC
:102A4000C0C0D9DB4E152C4A6437E1FCB5F787D5F9
:102A5000DFC7E9F2CB04A51FEFE4A19AE1B2F5C309
:102A600005DD3BC845A858E2D640FF7FB457E1FFDB
:102A700074E9E8F7BA1A5FC66A9EB808DB09C91B91
:102A8000CF3128DF88ED72201F0352DCD0CD21AD7D
:102A9000BE9976EB5C23250D6BF934E3FA193E738E
:102AA000FF7F3D72130B0080008083FC4B2740B4F6
:102AB0000080008000800080A0AB74D56D134E3381
:102AC0007BFCA0E17AFEA2232B2692A0008000804E
:102AD00083A0E7D3AFFA5E1E72620075571B0BE04E
:102AE000CCD702C9F1FBAA18731972200B128111FD
:102AF0000A28F34BF33FEE1947DFC0B73EC4C0D6F8
:102B000098D009A578B5A3DFF20BF11941DC01EAF1
:102B1000BA2342014A9E0080D388C4E59A15AF18B3
:102B2000BD51FF7F975FAA246C06D0F4E0DF36C367
:102B300018AEA5CED50F3D1CB90E93123F27FF7FCF
:102B4000FF7FC26AA0170DEE2B1A183E0C10F10E73
:102B50000BFB2B128D15D7DCA1D84CE3FED136A48C
:102B6000489E3894D0AFA6EB8B02C16CFF7F554ACC
:102B70001750D52A9142BA497DFA311C8E22F51C94
:102B800028FBB1A337A27CD6C9D9B9BB9E141C5867
:102B9000CC43A825AE0B99F2C5890080BCAD6FC6A9
:102BA0002DCC0708FB4CDD5AFF7FFF7FED55C17030
:102BB000FF7FFF7FB457C946DA04DAB762C7E7027E
:102BC000210E54E867FF2D1DA7D19CE28A33BC1E5D
:102BD000D7BD00800080AAA757AB79830080C2BA16
:102BE000F059FF7FB44FB3F05E0F834AED2AABC0BC
:102BF000079B42AC26E02913B3F48EE7950214F646
:102C000053E252D5008000800080D580E9F5001F96
:102C1000B2250745244165298EFE21EFAC1B792F93
:102C20006A0F8FDA208800807789899DB0BDB6BF92
:102C3000B8B793BD4CA9828E00800080E38E888C4B
:102C40000080BDAF7A06991F1B05ABEB4603CD3D57
:102C500017481605C4031C4CC76EF77DA954A4FF82
:102C600016D1A3DB19F6CDE01CB8CEB27FB4C09D5F
:102C7000CBBDB2EA4EEAF90078DC008000806393B5
:102C800099A30797A5AF9ECAB50AFD064BD59DDD52
:102C9000F1E05CF0A9D907C962FEC70048D0E6ECB4
:102CA0004A25551C1B1C2E1745FAD2295F767974CC
:102CB000CF7EFF7F775A332F580973EA3906ED49E3
:102CC000503A9233450DE9CBE740FF7FA67EC34CD7
:102CD000D0170C27E5385755114993DC0080008048
:102CE0000080298357C9F8DF21BD5AB74BF4C4418E
:102CF0002F574737EC0543E08810BC44072A51EBB7
:102D000006D70B0E885DFF7F7D680F4F676EFF7FD4
:102D1000FF7FFF7F5C5A01254FF743E7AFF22008A2
:102D200050FC0BE329EDE1DD1CB0BAB91507A03E5C
:102D3000D120CED5A5C7B808131F0204D0E536C0F0
:102D400068BEB8D224BA0292F8A95AB056AC8FD253
:102D5000BEE6800891E0B3AF46DCB2FBFC32952DB5
:102D600083D6F097D49618003E39185C96684909C6
:102D7000090B29369358FF7FFF7FFF7FFF7FFF7F7F
:102D8000FF7FE37C40571618CDE8EFF018D1DCCA7E
:102D900085D1C7CBDDD30FEAB4F5E6D27BAE008098
:102DA00000803A8FBCA27391008000800080008078
:102DB00000809DA6FDA80D9DB8A62AC7D105471481
:102DC000E5E7DCE83A279F481E63D47FFB77FF7F67
:102DD000FF7FFF7FFF7FFF7FFF7FFF7FFF7FFF7F03
:102DE000FF7FFF7FFF7F344463FC2CDDFD1D7B6193
:102DF0001544EEEDCB9B6380EB9370AF72A48F8094
:102E000000800080008000800080008000800080C2
:102E1000008000800080DB85E38BFD8631AC93DC95
:102E2000E9D77BD985DD2BE819197C2CF22623FA0A
:102E300062CB1DF0B62BAE55B06C3A4AB921E42BEB
:102E4000323DF25246617860576C487B2B745E6C61
:102E5000617C345B611C40E2A2C2F6EF51EB95B09D
:102E6000389800800080008000800080CC892E97F8
:102E7000FDA980D1D1D72AC471B59EC7F4F34B14F4
:102E8000402CCE5EFE6D133DB30BF3EEA008762A08
:102E90009C43CF38E6F933F9A71F5D34D24C407E0E
:102EA000B07FE44A145A925A381798F85FEE97DFC9
:102EB000EFDC56D445D77FDF77C7FEC968042B1EE9
:102EC000B725BC2A6221D130061297FEB1048DF6D7
:102ED000C1F7B5B1E2B3FFFD5815E244744EAA6DD7
:102EE000FF7FF16EF52857FCA6F291045708A3D78F
:102EF00075E2D1F26AD863E51AD1D8D202F8540F3C
:102F00002728AE3D0E5C60643D2F99E137D842E939
:102F1000FCFDF31940250F289511C71CB6282A245B
:102F2000CC2FD809EBE11EE659CDC1960080008078
:102F3000008000807B968A8B0080518E029AD0AAF6
:102F400075B4AEFCB623F115C913B8ECFA244F6082
:102F50009642B438C831C60E12F210FF551F1550F4
:102F60008C6C5E555E1E03F539EBCADECDFFCD4895
:102F7000004DD225990891E101BF388C7C91D3CBCB
:102F8000CCE6CBE1A3A10080008000800080A48675
:102F9000B39F309A13D47BF434319D5D2C14DC261E
:102FA000E44F8258FF7FFF7ABA55DF55C8635B5CF8
:102FB0000E36A139581D682A944A1313CA47A84CE3
:102FC00094141E194FE430D51DD6A7DD47D60080D6
:102FD000008000806F9F60E30ED402B92A990080C0
:102FE000008000804F87ACA01CA29BBAD7D488CFAA
:102FF0000BEF2436AB579962E45E1C5BF274FF7FE3
:10300000FF7FFF7FFF7FFF7F89573E4C1B4A1B3BA3
:10301000963E2B3D8925481AEEEE0DD77EF09BE5B6
:103020007EBF14B03FC6B1DAD7D030D51BCE09CDA4
:10303000A9E0B4D710F6FE0C7A0504124B04D30CA9
:103040008412C1EBBFE5C3E368CE44BA05C21EC813
:1030500079AF63C2ECA19688F7B663BAB6D64AE0F8
:1030600023CF61F0F90F09F78DD6A9DC0AF1A51F6E
:10307000A24AF866CE7CFF7FFF7FFF7FD86ED14BE0
:103080000667D759FF43E2340E176813E2FAC2E12C
:1030900013DCF7CDEBC663CA10ADF29093AD78B0F8
:1030A00073B051CF3EBCCAA1509C55A423B8D6AC36
:1030B00062ACADCF1CDFEFDC54E01E01F5431263C0
:1030C000504DE00D95FE6B2B3E384743F926991481
:1030D0009230B54171638463964AAA477733CD2510
:1030E000B3274B2BD73D53304021A1F611CE4BE5F2
:1030F000CDCCC3B189B871BC6CBD24D5E6B7D98A33
:103100008CB1DE9620A4F5DA34C852D82AEA47DA20
:10311000F9F7C4078BDB4FF79D07B51A5F578D434F
:103120003260FF7F176337495B31671DEF2A953C9B
:10313000DD3FD43DC737A820EE119400FEE109D051
:10314000FFB837C15EEC66F9B303370F8A078C12FC
:10315000B01287F762DB0DC718C973D084C807BAED
:1031600039B81FC98EDC72CE97B4EBC645E6E7D7F7
:10317000A9B5B4B0AFB80EC905D9EBDE6AEF30FB24
:1031800007031B0DDE1EB827D53A85648366B6712A
:103190003C6C4753D35EB65272594462D2516B664F
:1031A000E0732265365AD13F9627AA18D80C4613E9
:1031B00054FB5FD7F7AE0080899163B9FAABB9B021
:1031C00030BDC0BFE1DD94D9C9D9C0CF56ADD2C1A1
:1031D00074C6C4E5540E6B040FFDF6E78DE56C0A6A
:1031E000780E1D032C33CF285D2C46497009B61884
:1031F000590FA6DB54EC9EF27F0A601D6B33F83F3B
:103200008D341643583C762D3E261E18CF21E924D6
:10321000EA1AA305D1F17EF926FBBF003E1AF83168
:103220009924A21BA727A024611BEDF05CEC8C0362
:103230002602290393DC96C502CDAFCB06CBC1D1C4
:10324000DDD219CBCDD82CE129ECE6F51BFC80FCB6
:10325000E4DEB7D8D2E409F39201EAFE1CDF49EDBF
:103260003B11EAD854E439FA4AD483E91BF5E5FB6B
:1032700095063A074FFA1AFBE901A4EBEBCA9BD972
:1032800065F4C3CF5AE23CEB06F3E8172218741B2F
:10329000701CC829720CA001B0DF53B7B8D5C5CBDC
:1032A0005ED59A031A1AD118D124BD13E709310942
:1032B000BFE80105791BB818F115E40DB8F91FE056
:1032C0008CF7F40EE816A236BC44624B514C193010
:1032D000582CD818BA1B32253EFFC3F6BADC9CD353
:1032E0003DEDE1EDD7E840E26BEDDEFB9BEDC5E6A1
:1032F00082EC57EC3DEAC1E466EA3EFAB50775FA9E
:1033000021E441DD55F1F0054A025820E529012567
:103310001C481652F34BB050C632031CC5246E0530
:10332000B2FE08ED06CC6FE55FDA6ECF84F2C2FC28
:10333000B1D90EF38809FBE394F1D3E5F7E50EEC80
:10334000F1DF99FDB6094E10441CD213B1F93620B5
:10335000FA2CD1209851EE4B2053C649C31D6C075F
:1033600025EA22DE39C439B937C575DB1BFD1918CA
:10337000B719F5087A0AFB0363F4D4F3320A631A27
:10338000011D3A27E32907277C24951618046D0FA1
:103390007520491FF2238B240B1200F02FDEA9E1C8
:1033A0004DDC18CA53BB5EC283C7FDC064C7A9D138
:1033B00030D932E8ACEC6905B729590791FFDE072F
:1033C00063E1A9EC8FE166E1D0134C05EFF7AB06A2
:1033D0004CF2D902D52B2C0468ED9CEB1BD6F6D809
:1033E0009CDB9EEE43C5A7B6E1ED28E711FD6B1C03
:1033F000B11C5435E73BCD2E5941253FE934602EB1
:10340000DEF7EBF4790FC932463E9D1B670EE7FEEF
:10341000BD08580529FC7DEF0AEA86EE6CD482EBE4
:1034200080D872CA94D25B922FA5E6BE22BE0CF45D
:1034300053FD710B4228A32C7639E72D9F21D11D16
:10344000C71040197E23F21482136326161F311011
:10345000540BB7F75CE536CF3FCEF6F3C10AEE0D5D
:10346000F3011EFEC6072612650BFDEEFEF458E6BC
:1034700042E6960096E8EEFD8206480AD229460FFB
:10348000721B4D22470121F7B6CEE0AD5CCAC9DA06
:1034900038CAC3D7E0D825C30CCE2ECD87C1C2CA47
:1034A00080D104E4C20C163640309B2E5625EF1214
:1034B000D640C714D4122D2DC4F5733108286B20C3
:1034C000BE4F3B24B722510AE901A8053EDCB7E70D
:1034D00033DE2AD656E768E44DEF21E70CE14EE2F1
:1034E000CCD339D800E13CF7C60BDA08C90023EE8B
:1034F00018ECACF434F3BBFD2B0390F71AFB8508F2
:10350000EA0755F424E1DFDE6FE01AF04BE994D2CC
:1035100057D186C378D038F12004910BF504840A82
:10352000DA1CE52DBF2AFF34252F6833C53F9423CD
:10353000074A7D381231405090111433DA37F603C0
:10354000BD10340E06127030E92C2BEB8CF7FBE02B
:1035500028B09EDEF9C9C9CA00D99A03F91393E3CA
:10356000B022290C540A0F143AF19632FC14EE11D1
:10357000361CE10FE729322969349C129E0D421452
:1035800093EB1FD1BDF5D60A95EE27F865E4D9FB7C
:10359000821A98E892E231D738CB75E270D315CC15
:1035A000F5D200D1F9E528E38FD1AAEE7F0148F4E6
:1035B000BBFD20F643DCB1E96800C2E9FDE6050089
:1035C000F7DADCE075F2D0DC2CF5190167027E0831
:1035D0000217EA1D78215227960354FFC60BF00804
:1035E000BA0F6CFE09122C23B202900ABE02C2016D
:1035F00059077DD89AD070CF96CD40D7DFBA39AD74
:103600003DC279B212B40AE65BDBB1D5CDE0C9D5D3
:1036100066E99C0E6D2B700160ECC20991E5F11119
:10362000D6401026FE46432145253F3EF00C95210D
:10363000E10B7AFD6C03BCE3F7F0CEFC570C0501FF
:10364000E2E799F505D2EDCDEBE511D6000CB71DFB
:103650002C105B344F38053A1934912B651AAF0C96
:10366000E3226516780E01157008B41D6336A03B81
:1036700012441A36781E2A06A9E8B3E035DCDCDCF1
:1036800004E086DA8AD598D102DC98D186DEE3F8A8
:103690002CEA8301841189030906760AA51B8E266C
:1036A000F72AD02A5017B012511129081F078D0987
:1036B000781E7A205422C62D2D21872E62167EFC7C
:1036C000B9019BD527E6C2E9BCCC43EC25D6A3E2E1
:1036D00091FB37D5D3E56CE409EBE1F024E45F100E
:1036E0006EE339FA4F1D80F48A423310F2FC8324D2
:1036F0004DF76F36A22B8B25B74872234D1EF01065
:10370000F10290022EE9F4DDCEEDD1F1CBF302F41B
:1037100064E653DE91D550BFB4B391BAC3B18EBD48
:1037200004D022CE1FD131C37CC2F2CE82C981C364
:1037300087D4C0EDA2FF38084404821AC62D113781
:10374000613B7F3118328E1D7B16ED26E720AD06DA
:10375000960CC018620ACB1A6817AE0766082AFAD8
:1037600052DCB5F09AFE71EC891948ECFCDD1FFCC7
:103770002FBC13D906F21CE3280D8212D6F23E1597
:103780006F23BFFCFF14CE0C3EE0F0E5CFE728CC62
:10379000BECC3FE9BFE427D527F5C80605EDDEFB23
:1037A000FEED70CE39DC06F387FB28FE6C1D700C35
:1037B000090FAB1A2EF0AB039C0E00F83804E31E81
:1037C000211E351AAD29AE1A9719F22AE21D4519A4
:1037D000EE05ACECDE02F3027CF9A505A8FE760747
:1037E0000004AFFA3C0F5505C2F956FB50E948EB0F
:1037F000C0FDC7EE9CDB07D8ADC8DCCD4ADC9EC758
:103800000AC630D01ECF7AEA6EEEC1F44E01F9FC42
:10381000A9FC2DF74B1785FF89F79006F0D9CF212A
:103820008E262C0CEB563726E4094A21B517BE111B
:10383000DC00241EA0FC61D1F70B27FCBCEC541665
:1038400073F667CC81CA6CD0C2CAAAD698F0490474
:10385000A7F470D2C2E6C1E096E9E908F6FFB11C10
:103860006A160810591205005F1C9711D716C1255A
:1038700005140B3551245D0A9E14BEFE860D790891
:10388000ACF5E0FB0DF5EC12870E2AFE2A0DDF18D1
:10389000191D9103DC0B8CF779ED56FEF6D7BFFBB3
:1038A000BA1E6317242A9423822AE938DC27BD0C28
:1038B000C0FD70F1B6DE6ED019D658EA73DBFDEBB1
:1038C000A2F8F0DAA20377FD2EE95F088AF83CEF50
:1038D00059FB28094CFD68FC9900ED04790F95EE21
:1038E000A8FD090659FB391174076B083D1F941098
:1038F0006712C135D21A4A1AD8188EEB33F1B5F7D0
:1039000063E016DE83F460D0B9D7DEF062D3D2EC88
:103910008FF022ED9104CFF7CBFBDE06AAE915F07C
:1039200028F74DEC0109B1046A07DA0F3FF89B0450
:103930008007BAF837032704A301F10E37FF75F2A9
:10394000FCF9B5EB86EECCED14EAC3FAF4F44DF0D5
:10395000B1F9EFF785ED4FEF2802C20CA508F3FE91
:1039600086E798D90AE151EFEAFF3B090C265C2F64
:10397000F318AB19F0185F0D5819D22DA0139C063F
:10398000FE0040EF2A06370F9F1A1F1EF112571B29
:103990005A1F1B05E9F5C4FCDAF47C09E5FFE604CF
:1039A000C61752006A0337FB48F4B3F075EEBBED5F
:1039B00016E97D062926B4253D3B644E71353D331D
:1039C000D42D7024E016CDF77EF5AFF935F0E1087F
:1039D000941730F7730A130B3FE13EEBB8E855C775
:1039E00019CB23DFE1C2ADD4D2F863D1A7E19BF8B4
:1039F0009AE8E80494107705450E5E1A0C175819DA
:103A00000D1DBF0C850BA912DD0196F114F21BFDF3
:103A1000B304F806930F6B049103DB0AD9FF8111FD
:103A200042146B08FE0094F544F157E5A5ED37EB21
:103A3000BEE70BFBD6EBD8DE46FB42ED39E0FAFAE7
:103A4000B6F524F741F468F58DF2A6E75CF13DF197
:103A500017FA80FB290B371EFAFD1E05B738E6184A
:103A6000F70C6637F815DA0CFD198F00DBF6E20566
:103A7000520F49ED5CF5540A47EAECEBC4F17BE4E4
:103A800076E810FAB4FDA5E95DF602044BED4BEDC6
:103A90006BFD82FB42FD340E3C0AF9FB5F10BF1345
:103AA000C6F79603230E4FFECF063E06D9F75E00FB
:103AB000D4FEFEF08BFD73067A01D00C0D094CFA92
:103AC000DF0059FB23F2B9FE74FBD2F07E0084F6CE
:103AD0005EF00F0958F5E8F7280A63F4A903F31C10
:103AE00000104511B32668229414D6114B0719FE15
:103AF0003706CA024DF816F967FFCA092B0A7AFD84
:103B000024E9ABFE570F9FEC86E767FFC3E71FCDA5
:103B100031F9CEED41D1BCFA030951F29A033621B5
:103B200049FDBF0BA825730D4A115E1B9908B414FB
:103B3000822A6EE305FC172573E63CFBC61AC0F922
:103B400026FFCB1EBAFCFC056012D3EE39FE6206DE
:103B500029FCA2FB990067F6D0F871FB52ECFEF04D
:103B60006FF3ADEF91DD44ED57FC52E815F7E6F544
:103B7000EEF212FAC1F02EF995FEF6FA7AFAABFAE5
:103B80003AFC57FFB600A2FBE303790C4C01310568
:103B90009C0651F60EF7FB062C0010F6E2140F1CE3
:103BA000CD06070F63229D137A0A231D590F1108B2
:103BB000840A56FB66EDEFF05AEA28DFEFF04CE29C
:103BC000FAED0CFC70DB02FCDD1419F91600CB16C3
:103BD000E108B2FB4D0B10FE9FEF0BFAFAF6E3F88B
:103BE0001BFD92F1FE003820ED0BF619572700F46B
:103BF00023097B1AFAEE0FF246FBC2DE5CE8D8F12D
:103C0000B1DA16ED01EBABD88FF166F151E2B702F4
:103C1000E4055EF47C0893F73BEE470235F49FE73A
:103C200036F2ACF1FCF1F407BC0ABE0DBF228522CE
:103C30002622B42C612020186920F8115704260F81
:103C40004A06DFE94EF241F8B5EFBEF795F6D3F933
:103C5000DFFC2FF681F541F777F19BF99303CE084E
:103C60003012520FD119310905F9F217D50BF4F0C2
:103C70000F0477FD6BEEE506A3FAF5DE64F615F0AA
:103C800084DFF3FA50EC7BE8D9FE55E61AEF8B0A95
:103C900001EBF0E50C0B880822ED70F60D11BFF07A
:103CA0008FE9D50095EE0DF9FB0BFD028DF29FFF1C
:103CB0002B0A1DE84DEF610895F26BE6C2F98EFE06
:103CC00051EFFDFE3E0678F22C08221F9312F916E2
:103CD0009B328C2A9322A333AA189F07D51BB512B7
:103CE0008500D805D9F38FE514F1AFDB4DDC09E48D
:103CF00072E210F650ED56F2EEFE17F6F6FAA5FD5A
:103D000074F420F63EFA73F70C006B0046FB850452
:103D10006C02E1F4820B7C18720CAD1DD2227F2163
:103D20000628A31CEA164024F416040EE3162AFD06
:103D3000E0FBCC0C9EF65BDF49F18BF6B6DD34DFA1
:103D400094E9E7E6FFDAC5DE78E32FD3E3DCC1EBE5
:103D50001BE257E493F075FDCA024DF8480B2C287E
:103D6000D2132106671E8B2045122C0C8D0DF119E4
:103D7000210EA7ED1AEB2EF838F118E9C2E9B8F8D0
:103D8000B50E060ED105A7046706F5010BF7F5F988
:103D9000D9075305ACF46CEB3FE937F4ABFA77EA9B
:103DA0001DEC0BFF70FD81F9BA045D02ABFB7F06D1
:103DB0000708210B7E1009071901A6FE46FC06F72D
:103DC00051EEE9E2C7EA2DF7A6E39AE077FC91000D
:103DD000F6E85DEA0102C80E5D0A3D056D17C918D7
:103DE0002E0BF7081E01EC022A017FFAC1F342EA0A
:103DF000CFFAE8070EFCF4FCE11B941B0F086414D7
:103E00002F21551F6BFDC3FE6C1597EA58D636F16E
:103E1000B4E788DD4AEB19DFF9E0E6ECC1E4A8DF9E
:103E2000EEE278FAD40309F32DFFED0C7F09F9FBDC
:103E300090E618000E0B0CF413FF450D760EE81AF1
:103E4000CE1C3E168A26D026171D4920E9140B0DDC
:103E500033189F0B4CFAF004FCF819E648F39AF675
:103E600074EC65FB830C9209D605430605086108CE
:103E7000E70162FAF0F902F44CEBE7EF83F596F113
:103E80007BF0A0F593F06AF4DC0850106C0A73160E
:103E900092244A024BF4F70C3C0357F4FDF7F9F770
:103EA0003CFBCD0299F2E5EB4E05AE0B7F029D0384
:103EB0006D10E01A5D06B9F6680FB60929E0A6E3B1
:103EC000C0FDE1F4B6E262EA50F14BEC5CF1DBF3E9
:103ED00078EF50F5DBFE0903630CA81C4C21FA1C9B
:103EE000D51F8226381F290C6605B5079104EEF907
:103EF000CEF8AFFAB1E978E712FAE0FBE0F343F766
:103F000011FC73F2ECEB43F750FCEEFE9A07490804
:103F1000300726037FFECD031A03C6F35EF3F0F9E4
:103F20005BEFD1F288FD58F68BFA210BAD051BFC37
:103F3000F7FD33FD9AFE61F5ACF486050A018AF9B6
:103F40007001DC074D00D7F340FE440162EFF8F248
:103F500009060D06CAF60707B9247E1C600E6B24FD
:103F60009D1F99FDB6105F1043ECC6EC21FA6AF371
:103F70004CEAC9F12CF99401CFF71CEE9400A0FC97
:103F800015E390EA7001C9F5C8E7ECFA890610EF6D
:103F90005BF36A0E4E04D7FB9B046F0B4A0227F9B2
:103FA0000F08EE15D80CCDFBE8031D0B85F84FE884
:103FB00028F2BAFB09E72BD9AAE687F0DCF7420C16
:103FC0000F0C6E093E1E0D1D1211871B4420441755
:103FD000E519BD1C5017A51CF01B0D09DD05110BC3
:103FE000E9FD0BF681F9CAEA00E53BFAE5F7F7E9E6
:103FF000A1EFB0F3B7EFEEEDF0E64AEB64F955E16F
:10400000D8D27FF3EBFDE2E62BF74A1A01113C0B05
:10401000A518CA20741FE2148A0FD618131B8F0824
:104020009D079CFE15FB040BA5ED06DFDBFEF200F1
:10403000A2E0C2E23507340ED0F034E361049D0FF4
:104040004EF9DDFA2F097D0B3BFE30FBE3FF02FB4F
:1040500047FA0C005FFD2F0237126F070907A61AF7
:10406000A112D7FF8CF88902580909FB75F1C5FA2E
:10407000C9041CFF39FA3500470101FD85FC75FDB7
:10408000D7FBCBFF2F066604800786140819DA10C9
:10409000890A260B1A0A66052603D601BBFD2DFAEE
:1040A00031F976F827F430F434FE8D0191F84DF0B3
:1040B000DEF31FFB16F809F34BF84CFA91F817FEE4
:1040C00051F2D4EFAC084904E6EC2AF6E705DBFA36
:1040D000C7EE15F306114D1609F0AAF9D41984029A
:1040E00028EFF4039F02B1F5A6FA00FC6CF776F016
:1040F00028F64E08620D5C0F1A1A870FC40FED26C2
:1041000070144AFB600ACE177D0794FC11009AF6E2
:1041100040EFC7F985F889E00CE493F38BEA7CEE75
:104120002705A707FFFDE908C50DA90758053300B6
:10413000F0FD21FBA0F868F897F2AEE82DF77408BF
:1041400010FF5801E41137129905910C261ECD1E5F
:104150003111AF0D401D7F156F033405BFFCBBEA65
:1041600010EF19F990E6DAD908F1ECFEC9F0AFEEDC
:10417000B003D50CA90330FFA5040109F1FB27FC0E
:10418000770CC4FCCDECE800BE0952FC45F6F2FC0D
:104190002010200C97FA34064C0926F7F1FFA60EE2
:1041A000EAFE91F89F0B7B0B77F55EF7F802FBFFB9
:1041B000F6FF1901BD00A806320A710BC80E730E76
:1041C0003E0E530908FE64F6A1F6DBFA5FFD05F921
:1041D0009EF6ACFC79F8CCF15DF654FB30FC5EFB4E
:1041E0007BFC70FDF0F928F6B2FA53FE53F9A1F703
:1041F0005DFA28FBCFF7E8FBE905010208FA47FD65
:104200000C036F00A0FDFA01A208F5095D0539064F
:104210004709C407340A1C0A890266089911170263
:10422000F2F081F92D02C8F7EBF1EFFF3E032CEE1F
:10423000C4E598F31CFE5BF28CE80BF6E6FCBBEEE3
:104240001BEAD0FBAD063E02ACF47CF5C509A20723
:10425000AFF6C900871A1716550506122C1FF20F64
:104260000DFDBF0006114B0F5BF7D4EB9EFD460022
:10427000F2E8B5E80BFB2C0103F69DF330041905B9
:10428000DAF53EF7990CA310070446033B09D80959
:10429000F9003BF6EBF43000320233F52CF5AB03BA
:1042A000F3098C042A06FE0CAB0B51065203F500F1
:1042B00074FCE8FBD0FF5BFE03F9CFFA5102DA0091
:1042C000D7F750F83A000A0064FA54FFAA084B08DE
:1042D000680BFA140E0ECA054D13AF14E7FA4BF42F
:1042E000EA0721022FEEECEE4DF4C0F91EF995EF2E
:1042F0001DF1C9FDC5018FF868F138F505009C0274
:1043000061FCE9F510FBF00CEF0BD6FDB4F98E065D
:10431000F5111F0709FB3DFD9C0AFA0C590ED60D3D
:10432000BA034608560DBF07B7FF3D05830565F480
:10433000A8EE71FF2208B8EC12DF4BF52606C9FD86
:10434000F9F41AF8800827189B047AF99F07B70A2E
:104350009904DD017CFD4CF6C8F393F3D9F3E3EF48
:1043600070F268F4A9F096F4AEF849F94BF84FFFF3
:10437000D703FBFB78F687FC370289FA4FFB5D0514
:10438000950274F843FB9506E1037FFAEAFB1909ED
:1043900084114A0AF801EC02B00E0C146E0267F3A5
:1043A00080000E0F36FD04EF67FB18FCE1E97AE2AE
:1043B000ADF39401C7F2CADE39EE4C06CAFA5DEFDE
:1043C0003EFF1512B80C1CFAC4FC9F0EA7100D027C
:1043D000F0FD2505510554027F06600B7205DA00D9
:1043E000D507490C000767023A0710076FFFA302C1
:1043F000D508F801E7FA33007F012CF999F586F624
:1044000027F5DCF794FD3F004E018CFF3D009E0137
:104410000DFECBFCCB0057032400DAFC61FC13FB40
:1044200070F95EF7EBF5A2F8ABFB51FA62F6F8F61D
:10443000EEFD4C01A8FDC4FCD102AD0663FFC7F937
:10444000380446087AFEFDFE15078008B604EB0125
:1044500027050C10B013C20559FFE40C7311DD05DC
:104460007102E30BB1105004C5FADC03DA08A3FAB9
:104470007EECFBF33003CCFDB7EB3EF36A0B180880
:10448000BDF4B5F3DC0019021CF24EEE1BFD8504F1
:1044900007FCEFF385FC51065C0011F810FF2B0AB6
:1044A0004F03BFF82DFFAA082D0278F7DAFC1B098D
:1044B0007F06B6FDBFFF7D06B507CE006BF94CFE4B
:1044C0001808D60174FC360557081307C4072606DA
:1044D0005A01D8FD2CFDDEFFB60126FFEAFE98FF4B
:1044E000680063FF73FA11F830FCD0006DFC72F5C0
:1044F00006FA800459FF30F334FA3E0710FF21F327
:10450000C0FE90094FFEB6F93405700586F917F71D
:10451000C8FEB3004AFB5BFA71FF8B01CAFE3DFD8A
:10452000F6FB96F811FD910720016DF462FECD0AAD
:10453000C0FE2BF3F9FFE607C70033FD19FA1A0393
:10454000DA0CCE006BF2FCF50308500C5DFA34F384
:1045500019028E065AFC3CF86502D00797F996F4CA
:1045600006FACFFAC9F90CF850F885FF6601ECF7A6
:1045700097F971FE26FF19014AFBDCF771FFDC0792
:10458000020461F855F94306D308A6FF44FD64010F
:104590001A06310914059201C30271063F0BAB06DE
:1045A000E5FE8602F208040308FA6EFE2D03A9FC5C
:1045B000CBF4CDF7DB020B02CEF5E0F36AFFEDFFA3
:1045C00023F25CF15A0490110402A2ECBAF77F12B4
:1045D000C00D70F5B4F537068E0B8D088A045DFEAC
:1045E000AFF99D00930F030D70FDC0FD8B096909A4
:1045F0003CFF70FD0102E0FEBFF423F61003080546
:10460000A2FB27F92AFDC8FB18FB7A01E503C9FCC8
:104610008CF891FF8D09350C1A073D002DFE5F01C6
:10462000AE03D30451054001F8FAEEFA8402EE0518
:104630007DFF39FA40FE18038EFF88FD4B046F079B
:10464000A00152FC39FE6E02C701BDFD52FC3300D1
:104650007E04A60314FD04F76DF9A90009025FFDAD
:10466000D7FC930210064701D3F9C9F920012F05A1
:10467000EB00BFFBABFBE002C806F7FCC8F364F934
:1046800084066E06A9F708F22DFF650BF8017DF38D
:1046900058FE5E13FA0CA4F465F0F302E20DB304C5
:1046A000D4F7B1F97F056C0350F95CF84FFE23068F
:1046B000D301B3F107F00A01DC075BF706EBAEFBB1
:1046C000730E160198EC83F58707EA035CF821FA6C
:1046D0009F028CFF52F7F2FCFF05E002E3FCD9FEDB
:1046E000E702190246FFFFFDF1FE60FE3AFC97FD6E
:1046F00063FFD3FCEBF8C5F9B9FD4DFC53F6F4F8B4
:104700005B03A20415FE12FE35038C032AFEECFAAD
:104710003D001A073105DDFEF2FC9900070810077D
:104720005DFEFF02E70A8805C700E9055907F4FCAA
:1047300050F41BFC870AEE0529F410F3D304170686
:1047400009F02BEF88051D08C8F648F36002430EF8
:1047500083089CFA8FF85B03D5073AFC95F7FC05B4
:10476000EF0BE5FA46F08202A014EA0A1FF8D2F72E
:104770001A067F0E820A67FF0AF9AEFF0D09CC0503
:10478000CEF927F8C90082028FF903F677FC24FCE2
:1047900014F675F67DFE42057F0249FD57FC720056
:1047A0004306AD06F30181FD94FD7C013E03490003
:1047B000DDFD83FD75FDC400C803ADFE00F906FEF6
:1047C0007204E5020F013F00A6FE7700EE01B30080
:1047D000C3FE98FB74FBB5FF590346FF09F72DFA9A
:1047E0000004300301FA46FB46076F07F7FCE8FBBD
:1047F000280239021100EE01D40261FD4EF60FFDD0
:10480000A10958023DF145F3CF02690527F96DF47E
:104810000C001807A9FC8FF424FFA70B3E03B2F28B
:104820001AF41E0238097204FCF916F4D5F8AD0129
:1048300089069F0271F75FF6F204C30D6206BA00A3
:10484000DB06810906021CFE740377082D06E8FFCB
:10485000DCFB81FD6B01DF003FFDABFB52FBCEF9C2
:1048600083F93FFC58FD60FBB7FA54FB4DFCB9FEE1
:10487000C900CB0046004900BCFF75FEF3FEA8014D
:10488000690147FE6CFF73069B0B4607B100F302FC
:10489000340AEF0AD30115FBAC005C08EA03BEFA48
:1048A00080FB0D022903B8FCD9F77FFA8BFEC6FC0A
:1048B000B4F971FE4603CBFC9CF2E2F53E06D00C47
:1048C0000AFDE4EE7DFA630C76070DF565F3E80466
:1048D000FF10F50874F819F5D9FEFF0512069604C5
:1048E000F8027EFC45F674FC1B05B3FFAFF5CDF76F
:1048F0002903140573FADBF691FFB006990437FF1C
:1049000069FE9901C103AF0138FD66FCC5010004D1
:10491000D6FD6EFAB3FFD804C60362026F043605F3
:10492000580291002D03B405A7042501D6FE3101DC
:10493000F504D4021DFC11F949FC5500D8FDFBF724
:10494000A7F8E2FE750115FE7BFCF700CB043101F0
:1049500012FA5CF99701A8066CFE64F5BDF99502A0
:10496000CB0391FF2CFCF5FD52037E04AA014D0000
:1049700032033D08BD0492F9BAF8FE074A11450218
:1049800096F159F74D070A0CAE00A9F3D4F2D1FD08
:104990003C07770424FCD5F82DFB37FFF8025501BE
:1049A0008CFBAFF9B5FB68FC7FFA56FB09FF52FFA1
:1049B000C9FC74FBD6FD1C022A0224FF1CFFBA03AB
:1049C000ED07BC06A102A900F3028B05D304F50094
:1049D0006BFD81FE3702A203160052FCCEFCDDFE09
:1049E000DEFFA9FF54FF71FEC9FD87FF8902C201E6
:1049F00042FD67FB40FEA802180347FEABFAA1FE8A
:104A0000C4047B03D3FD87FC61014C067C046EFE6D
:104A100039FE7D0263FF7CF912FED40608058CF78F
:104A200036F169FDB007A30295F7E0F3CBFB5E0317
:104A3000370284FE0A001F03260263FF17FE7BFF76
:104A40005B03240447FDD2F897FE9E057704AE0071
:104A500074FF0AFD34FED6064F0EFA097AFD8AF974
:104A6000FA011B085B063F042A02F7FD04FB5CFC0D
:104A7000D3007B039AFE79F5CDF3B7FB260315032C
:104A800090FE4FFBF1FB8CFF10038003B3FFE5FBAF
:104A90002CFC97FEF200A001FDFE03FDD6FEFEFFFA
:104AA00095FEE7FE21029A037201E8FF0402D70394
:104AB000190291000B02C103DA001BFD24006706F6
:104AC0005907D9FF76F7BAF8D4FFD801D7FFE7FE28
:104AD000C5FDA4FB5EFBC8FFC204AB0298FB72F9E4
:104AE0001CFE91FFE7FAD8F9B7FFC803220042F98C
:104AF0007BF8D4FF6B04110043FB85FF820618048A
:104B000058FD61FC93FFE7013E03A90366001EFA0E
:104B100047FAA20376071CFE6AF463F8D003AB07DA
:104B2000B60108FAC5F9FE003206DB02E6FC3EFEDD
:104B30002D03C00149FC1CFB7AFEB6018D0121FF4B
:104B40008BFD31FDEAFEC2017302570084FE98FF1F
:104B5000C7016502BF00C3FE07FFF70099011300FC
:104B6000F8FEE1FF160049FD1FFCA5009604920126
:104B700029FCB3FCB7026405850014FAFAFAEF02C7
:104B8000AD06D7FF43F7A2F8D301AE072903A7F874
:104B9000CFF6E7016D0C450A0BFEAEF7AFFD200422
:104BA000AC047B03DF0195FE5DFD3B010704D500EE
:104BB000FBFB33FC03016A038EFF5EFB4FFE5704D1
:104BC000EF0374FC7EF892FECF06AE07DEFFECF733
:104BD00012FA3E038C07D1015FF90AF878FE3D0511
:104BE0001E05E7FE40FA1BFCFF010605D801BAFCD2
:104BF000E8FB7700BA049603E5FEB1FCA6FFD403F8
:104C0000E50398FF63FCC5FD6B01FF02AE00BDFD2F
:104C10000BFEF70090021201A6FE34FE18004901B7
:104C20009AFF50FD21FEBD00A000E8FCD8F972FCFF
:104C30009701580245FE58FAF8FA21FF87036804E5
:104C4000C8FFE4F93BFA0D02A90746046DFD43FBDA
:104C50001FFFFF02A602DC009AFFB4FEB7FFC102ED
:104C6000D403DF00CEFDE7FDC8FFCE016C03E401F5
:104C700049FDC3FAC6FCD7FF59FFFCFC61FC3FFCB1
:104C80006AFC6FFF320267FF90FA9AFB0602C205C8
:104C9000F30104FBF7F96300B206B605CAFE01FA98
:104CA0006FFBD9FFD602150349018EFE55FDF3FEB9
:104CB0001E02E404A50494016CFF330012028E026C
:104CC0006901F6FF1FFFAFFE7AFE64FED4FE2E00E0
:104CD000A50115024201EAFF5DFE50FD28FE1E01FE
:104CE0005E036401F0FC90FA41FC4AFF6CFFBBFDDF
:104CF000D6FDA2FF050047FD47FA80FC5703860654
:104D00009C01A3FA99F967FE3C033004540269013F
:104D1000040291000AFC0AF90AFCD703EC09D40644
:104D200091FBE0F333F9B406640D5805DFF850F851
:104D3000CD0274088902E4F92EF9570004065903DC
:104D4000A4FB50F8BDFC430224030301FDFEAFFDAC
:104D5000F0FD6300EA02E50266001CFE17FEABFFF1
:104D60006101C001B5FF1BFDE8FC0BFFBD00B3FFF7
:104D70002FFDB3FC41FF860103010BFF21FE21FF44
:104D80008C00F70033009AFEAAFDFFFEFC000D0127
:104D9000ABFFDBFE87FFEFFFD7FFFE00E502F80267
:104DA000A9FF83FC90FE0F049706BF039EFDA8FA9F
:104DB000A3FE22043D0408FECEF876FBD902490585
:104DC00057002BFBB8F9EEFA62FE65021503A4FF4B
:104DD0009EFA76F880FCE202F004D500D1FAE3F8FE
:104DE0002FFD60038B05820214FD09FB69FE57034A
:104DF0008605AB027DFECFFE5B030F0594009DFC94
:104E0000C5FE9603D903C3FEBEFAFCFCE00294047F
:104E1000E3FFCCFA46FBFBFFC102D70001FDE5FB37
:104E200078FE08018F00C2FD61FC0BFE07001D002B
:104E3000ECFE5BFEB2FE2BFFCBFF7900B300D4FF8C
:104E4000C5FE35FF8C002A01DF00B100830160023E
:104E5000EB00D3FDF7FC80FF9A026C03510186FD45
:104E60002DFBBFFC470140053804B2FE9FFB45FE09
:104E70009C014901B0FF35FF7BFF85FF58FE5FFDB8
:104E8000EBFD6FFF9AFF04FE47FE01019F027200D7
:104E90009DFCF9FB3A0049059E052102ECFE42FD0E
:104EA000A5FD5A004D0341047A02D9FE33FCD5FC1E
:104EB00030000203A10278FFD7FC70FD7900840264
:104EC0000A01BDFD49FC7EFD9DFFF0002C0083FD25
:104ED00029FCC9FDB3FF2900FEFFDCFF6FFF86FE42
:104EE0004CFEEAFF2F02C3022F015EFF37FFA9002D
:104EF0006502A8025801FEFF0500ED007C012F01AC
:104F00003300FBFFFEFFC8FE20FD0DFD71FF7A019F
:104F100068004CFDCDFB4EFDEAFE6EFE01FD9BFDE3
:104F200053017204A802CBFC76F824FB930210070D
:104F30006F04A8FD21FAA5FC6B014F036E019AFFD7
:104F40005C005B0232025DFE23FACBFB0C03C1075F
:104F5000DA04C2FDA5F9EAFA69FEF50009027F024A
:104F6000C802010122FCCBF874FB210248060704A9
:104F700067FE1CFBC2FCED008203190260FE38FDD7
:104F8000F1FFA102970110FE68FC10FED300A301FF
:104F900055006AFF6CFF24FF51FEADFEBD004002CC
:104FA000A001B7FFE0FEA4FF6B006D003500F9FF24
:104FB00057FFC5FE0EFF61003101BFFF2AFD98FCBF
:104FC00067FE4B00AC003EFF2DFE59FFB10106020B
:104FD0001AFF6DFC70FD5501180418049201F0FCD5
:104FE000E5FA1FFF20053B06F50039FBDCFB7A01E3
:104FF0005A0543032FFEE8FBC7FDBF007F01F20007
:10500000BF00FEFF99FD4AFB5CFCEB00EB0448038C
:105010005AFD3BF912FA48FFB604AA05A900A1FA05
:1050200023FA09FFE50398036AFFD0FCDAFD5E006E
:1050300070016F003EFFCBFF16018000DDFEEEFE2B
:105040007400B10147019FFFAFFEF6FE0A000F0199
:10505000ED00E8FF10FF15FFCDFFB60016015C0064
:1050600078FFDEFF01016E018000E5FE1EFE24FFD9
:10507000DC0064018300B7FE14FD27FD41FFAF0192
:10508000DF0198FF58FDB1FC27FD8EFEF200CA0239
:105090002A0215FFD4FB1AFBD8FD2302BD04BC0372
:1050A0000C00AEFC05FC67FE82023D05E303C3FF76
:1050B000BFFC2AFD4400D003E804880113FC56FA23
:1050C000A1FE4104F704A6FFA3F900F999FD7102BE
:1050D000D903B6019EFD7DFAD9FA32FE2602D0032D
:1050E000B601D1FD55FC64FE2A014A02CA01C20084
:1050F0007BFFCDFEA6FF4C017502CC019AFF0DFE91
:1051000090FE4D00A801BB015A00A3FED8FD92FEFF
:105110000A00E4007B00C8FEC5FD67FE98FF16008C
:10512000B3FF78FF85FF91FFA9FF41006B01A50147
:105130000200CCFD72FD93FF34022903A001D1FED1
:1051400086FD90FEEFFFD4FF0EFF7DFF6401FF029E
:10515000AF01C9FD8EFA67FB6800DC04DC04C20005
:105160003BFD5FFD10FF63FFF5FDCCFDFE00D304AA
:10517000D80457003EFB06FA5FFDE4011D049103CD
:105180009E0124FFC2FCCBFB58FD7400AB02A102C0
:105190003301B3FF47FEC6FC3CFC2AFE88016C03CA
:1051A000A1023F005DFE06FEA6FE4DFF6600EB017C
:1051B000AB02F001E1FF56FE60FE91FFF2008101BB
:1051C0007201B80091FFA6FE84FE48FFF6FF0700BB
:1051D00095FF46FF6FFF8EFFAEFFC8FF82FFEEFE1A
:1051E0008EFEA3FE5BFF85002001F200FBFF92FE16
:1051F000F7FDC5FE2E00DC0025017201F9008CFFD1
:1052000025FE19FEA2FF72016E01C6FFCFFE4DFF03
:105210006B00BA007BFF70FD4CFD0F00AB02A102DA
:10522000A6FFCBFBF8FAA8FEAE03660545027AFDA1
:10523000C6FB23FE7A01CA02AF013A00EDFFD7FF99
:1052400089FF6FFFB0FFB8003D01160081FE6CFEC4
:1052500022008601F90015FFA0FDEBFD57FF61005C
:105260001F000BFF62FECAFEE3FFA7006B0074FF86
:1052700075FE5DFE91FFF5005F01850054FFFFFEA6
:10528000AEFFD700880131010A0004FFF3FEEAFFF8
:105290003B01AF01DF0046FF2AFE95FEFBFF310117
:1052A000510191009DFFBEFE64FE9CFE35FFF1FFA3
:1052B0008300F000E80000008BFE53FD75FD93FFB6
:1052C00028021803C501EAFE63FC16FC6EFECE013F
:1052D000AE0330032F015DFEEDFBD9FBE0FED102F2
:1052E00068045B028EFE94FCC9FD4600880116012D
:1052F000E5FF3CFFE5FFDC00EB00FBFFB4FE2AFE10
:10530000DDFE8F00F001B601EFFFCCFDF0FCD1FD1A
:10531000BCFF8B012D02310115FF94FDDDFD91FFD6
:1053200038017C015700D9FE81FE67FF7E00010134
:10533000D30024004FFF15FF85FF3800BA00A900F5
:1053400011004AFFF6FE4AFF410027012A01300002
:10535000C5FE15FEBCFE1300E800ED00850013003D
:1053600080FF97FEE7FD5BFE6F00A102F302DA000B
:10537000C9FD94FC2AFE0501580270010A006CFF69
:1053800060FF07FF9CFEB7FEE1FF81010B02BF003B
:1053900073FE58FD10FEA6FFC700FC00C7005A00B0
:1053A00080FF6CFE92FD8DFD52FF0402A203EC0211
:1053B000E5FF8AFC74FB69FDBF002B037D0323021C
:1053C000EDFFF3FD61FD4FFE18008801F30175014B
:1053D000660048FF7FFE9FFE9DFF9600F900E100FA
:1053E00066009AFFCFFEA1FE1CFFD2FF6F007B007C
:1053F0001D0095FF1FFF2BFFA9FF22002C00B7FF08
:105400002BFF29FFA2FF4D00D300C4001B003CFF6F
:10541000F8FE8EFF7400C20033006FFF57FF2400B8
:10542000DA00C200C3FF97FE84FEC6FF25017001AB
:105430007200C5FED8FDA6FE77008301D0004AFFAA
:1054400043FE75FEA4FFA9000101BF00DCFFA1FE21
:10545000D6FD40FED2FF42017F018F0078FF4AFF58
:10546000D4FF6B007200E5FF74FF76FFE1FF770069
:10547000A20085008C006300EFFF6CFF2BFF4AFF4A
:10548000DCFFA500E8007E00C8FF1CFFE2FE3CFF39
:10549000DCFF500052001800C1FF65FF21FF37FFFD
:1054A000AEFF1B002400D7FF82FF4FFF89FFEDFFF7
:1054B00030003300E8FF98FF60FFA4FF3500C20012
:1054C00003017E0076FFABFECDFECBFFE600880138
:1054D0004701070078FEB1FD4FFE0700B601340218
:1054E000270113FF64FD75FDF8FEE4003E024A0249
:1054F000010113FFE7FD1EFE5EFF8500A2002400F0
:105500002400E80047016B00D1FEA8FD21FE160033
:105510002302F102AA01D1FE66FC38FC67FE5D01A0
:1055200030030203E400F3FD46FC0FFD82FFBD01E2
:105530003402D700FDFE1CFEA3FEE1FFC400BF0045
:105540000C0046FF18FF98FF4400B8009600F9FFD2
:105550006FFF54FFC8FF6600A5006100DCFF5EFF1F
:105560002BFF5EFFC6FF33005A003F00FEFFABFF7C
:1055700063FF43FF54FF76FFCBFF300072006100F2
:10558000E8FF82FF82FFC6FFD9FFB5FFD4FF4900C5
:10559000D000BF000C0048FFE2FE18FF9DFF460050
:1055A000E8002001CB00D4FFC3FE43FEB2FED4FFCF
:1055B000B600D0005700E8FFDCFF0C00EAFF48FF10
:1055C000B2FEADFE89FFE100A30164014600C8FE02
:1055D000DAFD21FE8CFF36011902C5017900D4FEE7
:1055E000BBFDFCFD4FFFD700C0018B01960071FF92
:1055F00086FE58FEF8FEF1FFD7002301BD00110022
:1056000065FFFFFE1CFF8EFF22009600A9007200BE
:105610001D00BAFF76FF85FFC8FF0A0018000200D0
:1056200000000C00F6FFB3FF63FF59FFBCFF500002
:10563000B800AE00350091FF37FF63FFE3FF520073
:1056400061001B00E8FF0C005A004B00B3FFFBFE9B
:10565000D6FE74FF8300510151015700D9FED3FDDE
:10566000F3FD2DFFAC0077010501BCFFCDFED6FE9A
:10567000B0FF570024005EFFA8FEC8FECBFFF70076
:105680007701ED00A6FF62FEE9FD95FE2E00C20146
:1056900045028B01F6FF7FFE2DFE0BFF5A002A010B
:1056A00016016F009FFF29FF43FFB7FF30005A002C
:1056B0002E00D2FF67FF32FF5BFFBAFF1F005A00C8
:1056C0004B000500A2FF52FF5BFFC1FF33005E00ED
:1056D0003500E1FF8EFF76FFBAFF24007E006D00EB
:1056E000EDFF6AFF3EFF89FF1B00850077000F007A
:1056F00093FF43FF48FF8EFFEAFF3D0074007900EF
:10570000290067FFC0FEB7FE60FF77003D015A0128
:10571000B1007BFF7DFE67FE6FFFE400F501DF0156
:105720009400EEFED1FD01FE60FF1601FF018B012A
:105730003D0015FFC3FE1FFFC3FF18000A00C6FF90
:10574000A4FF1B0096008000C1FFC3FE62FEFDFEA9
:105750003D0051018101A2004AFF73FEC3FECDFF4F
:10576000BA00EB005700B0FF5EFF82FF02006D0041
:105770000000000000000000000000000000000029
:105780000000000000000000000000000000000019
:105790000000000000000000000000000000000009
:1057A00000000000000000000000000000000000F9
:1057B00000000000000000000000000000000000E9
:1057C00000000000000000000000000000000000D9
:1057D00000000000000000000000000000000000C9
:1057E00000000000000000000000000000000000B9
:1057F00000000000000000000000000000000000A9
:105800000000000000000000000000000000000098
:04000005080000ED02
:00000001FF
